:100000000C9479020C9496020C9496020C9496022D
:100010000C9496020C9496020C9496020C94960200
:100020000C9496020C9496020C944D0C0C94DD10DA
:100030000C94F71E0C9496020C9496020C94960263
:100040000C9496020C9496020C9496020C949602D0
:100050000C9496020C94240D0C9496020C94960227
:100060000C9496020C9496020C9496020C949602B0
:100070000C9496020C9496020C9496020C949602A0
:100080000C9496020C9496020C9496020C94960290
:100090000C9496020C9496020C9496020C94960280
:1000A0000C9496020C9496020C9496020501098019
:1000B000A101850319012AB700150126B700950192
:1000C00075108100C0050C0901A101850419012AE0
:1000D000A002150126A002950175108100C005013E
:1000E0000906A1018505050719E029E71500250185
:1000F0009508750181020507190029EF15002501F2
:1001000095F075018102050819012905950575010C
:100110009102950175039101C005010902A1010930
:1001200001A100050919012905150025019505758D
:10013000018102950175038101050109300931151D
:1001400081257F95027508810609381581257F95DF
:100150000175088106050C0A38021581257F950175
:1001600075088106C0C005010906A101050719E04F
:1001700029E715002501950875018102950175088B
:1001800081010507190029FF150026FF0095067556
:100190000881000508190129059505750191029549
:1001A0000175039101C00000000000000000000084
:1001B000000000000000000000007E0F00D4FFFFE0
:1001C000FFC70000007800000000000000002A2B9C
:1001D00028000000000000000000000000000000F7
:1001E0000029000000002C1E342021222434262760
:1001F000252E362D3738271E1F2021222324252681
:100200003333362E37381F0405060708090A0B0C4E
:100210000D0E0F101112131415161718191A1B1C96
:100220001D2F3130232D350405060708090A0B0C54
:100230000D0E0F101112131415161718191A1B1C76
:100240001D2F3130354C29002B003900E100E00032
:1002500000001E00140004001D00E3004E001F00FB
:100260001A0016001B00E3000151200008000700DF
:100270000600E2002C002100150009411900E200EF
:100280004B00220017000A420500000011502E000A
:10029000350000004C000000005C89002B000000CD
:1002A0002A000000500023001C000B001100000079
:1002B0004F00240018000D001000300052002500EF
:1002C0000C000E00360032002800260012000F003D
:1002D0003700E600E4002700130033003800E40094
:1002E00051002D002F00340087008900000001001C
:1002F000010001000100105000003A0001006500FB
:100300000100010001003B000100E40001000100C8
:1003100001003C000100E5000100010001003D007A
:10032000010001000100010001003E000100010088
:100330000100000012500100010000000100000057
:10034000010001000100000001000000B6003F00B4
:100350004B004E0049000000B70040000100500073
:100360004600010001004100520051004700010019
:100370000100420001004F0048000100010043005D
:1003800001000100010001000100440045000100DE
:100390000100010000000100010001000100010056
:1003A0000000010001000100010001000100010046
:1003B0000100F50001000100010001000100F4004E
:1003C0000100010001000100010001000100010025
:1003D00001000100010001000100000010500100B7
:1003E0000100000001000000010001000100000008
:1003F00001000000B6000100F900FA000100000051
:10040000B70001000100F20001000100010001003D
:10041000F000F10001000100F40001000100F30010
:1004200001000100F50001000100010001000100D0
:1004300001000100010001000100010000000902AB
:100440005400030100A0FA090400000103010100A7
:100450000921110100012240000705810308000A5B
:100460000904010001030102000921110100012218
:100470004D000705820308000A0904020001030079
:100480000000092111010001226D000705830320EE
:10049000000A1201000200000008973274490100AE
:1004A0000102000116034500720067006F0044005E
:1004B0006F007800200045005A00000030035A0009
:1004C00053004100200054006500630068006E0086
:1004D0006F006C006F006700790020004C00610025
:1004E00062007300200049006E00630000000403F6
:1004F000090411241FBECFEFDAE0DEBFCDBF11E04B
:10050000A0E0B1E0E6EFF8E402C005900D92AC3552
:10051000B107D9F722E0ACE5B1E001C01D92A538E2
:10052000B207E1F70E94651C0C944E240C94000065
:10053000E8EDF0E080818E7F80831092E2001092DF
:10054000DA001092E100A0EEB0E08C9181608C9313
:1005500080818F77808319BCA7EDB0E08C918E7F6E
:100560008C9380818F7E808310924F02089520911A
:10057000E4003091E50095E6A9012091EC00822F7E
:10058000817020FF06C08091E80080FF06C080E0F7
:1005900008952091E80022FD1AC0809174028823FA
:1005A00089F0853089F08091EB0085FD0FC02091A6
:1005B000E4003091E50042175307F9F29150E1F65B
:1005C00084E0089582E0089583E0089581E008952D
:1005D000EF92FF920F931F93CF937C018B010E94A8
:1005E000B702C82F811117C08091E80085FD0BC0AC
:1005F0008091E8008E778093E8000E94B7028823FC
:1006000099F3C82F08C0F70181917F018093F10011
:100610000150110949F78C2FCF911F910F91FF9035
:10062000EF9008958091760287FF13C08091E800D3
:1006300082FF06C08091E8008B778093E80004C0B9
:10064000809174028111F2CF089580917402882301
:10065000D9F38091E80080FFF8CF8091E8008E7791
:10066000ECCF982F9093E900242F762F50E0891734
:1006700031F07091EC002091ED005091F00021FDDF
:1006800007C09F5F973071F78093E90081E008957C
:100690003091EB003E7F3093EB003091ED003D7FD9
:1006A0003093ED003091EB0031603093EB007093AC
:1006B000EC002093ED005093F0002091EE0027FD18
:1006C000E0CF80E00895CF92DF92EF92FF920F93F8
:1006D0001F93CF93DF93C8EDD0E088818F7E88830E
:1006E000E7EDF0E080818160808384E082BF81E07B
:1006F00080934F0288818E7F888302EE10E0F8019C
:1007000010821092DA0081EEC82ED12CF6011082F0
:1007100088818F77888388818068888388818F7DAE
:10072000888319BC109274021092750210927302A1
:100730001092720290EEE92EF12CF70180818B7FEE
:10074000808388818160888342E060E080E00E944D
:100750003103F60180818E7F8083F8018081816082
:100760008083808188608083F70180818E7F808391
:10077000888180618883DF91CF911F910F91FF90D5
:10078000EF90DF90CF900895FC0180917C029091D2
:100790007D0286179707A0F06115710529F49091E5
:1007A000E8009E779093E80090E06115710551F4A0
:1007B000911108C08091E80082FF34C080E0089564
:1007C000BC01F2CF809174028823C1F18530C1F160
:1007D0008091E80083FD30C08091E80082FDEACF7F
:1007E0008091E80080FFE1CF8091F3002091F2003A
:1007F000382F6115710519F02830310558F091E056
:100800002830310509F090E02091E8002E77209300
:10081000E800CBCF81918093F100615071092F5F87
:100820003F4FE7CF80917402882341F0853041F03B
:100830008091E80083FFBECF81E0089582E00895B3
:1008400083E0089580915102089590913B02803F8A
:1008500059F480913C0287FF0DC010923C02911127
:100860000BC01092370208C0813F81F480913C0296
:1008700018169CF3992381F080913D0290913E02DD
:10088000892B09F064C0109234020895823F49F424
:1008900097FFF0CF10923B0280913C028111ECCF88
:1008A000E0CF833F19F41916ACF3E4CF20913D0259
:1008B000893F29F41216F4F610923D02DBCF8A3FED
:1008C00019F427FFD7CFF8CF20913E028B3F29F4B0
:1008D00027FFD0CF10923E02CDCF8C3F19F41216D5
:1008E000CCF3C8CF843F31F480913A028E7F80935D
:1008F0003A02C0CF853F21F480913A028D7FF7CF35
:10090000863F21F480913A028B7FF1CF873F21F41B
:1009100080913A02877FEBCF883F21F480913A02A1
:100920008F7EE5CF8D3F31F4809108028E7F8093DA
:100930000802A0CF8E3F21F4809108028D7FF7CF6F
:100940008F3F09F097CF809108028B7FF0CF0895F9
:1009500081E008958091080280FD1AC081FD14C0D5
:1009600082FD14C0809137029FEF980F9B3370F483
:1009700025E0829FC00111246CE370E00E94EB1F10
:10098000862F672B29F0089582E0089585E0089569
:1009900081E00895803F31F40E94AA0481958093FC
:1009A0003C020895813F19F40E94AA04F8CF823FC7
:1009B00031F40E94AA04819580933B020895833FFD
:1009C00019F40E94AA04F8CF893F29F40E94A804D0
:1009D00080933D0208958A3F21F40E94A8048195E6
:1009E000F7CF8B3F31F40E94A804819580933E029B
:1009F00008958C3F19F40E94A804F8CF843F31F485
:100A000080913A02816080933A020895853F21F4F3
:100A100080913A028260F7CF863F21F480913A02BA
:100A20008460F1CF873F21F480913A028860EBCF58
:100A3000883F21F480913A028061E5CF8D3F31F407
:100A40008091080281608093080208958E3F21F40E
:100A5000809108028260F7CF8F3FB9F7809108023A
:100A60008460F1CF9C014FB7F8948091040290917B
:100A70000502A0910602B09107024FBF821B930BA3
:100A80000895209115012223C9F02091210227FF0A
:100A900015C0E62FE695E695E695EE31D8F4E80F19
:100AA000F92FF11D677021E030E001C0220F6A9537
:100AB000EAF720958281282322830895FC0132964B
:100AC00008962191621303C0DF0111971C92E81769
:100AD000F907B9F70895209115012223C1F020915B
:100AE000210227FF14C0E62FE695E695E695EE3144
:100AF000F8F4E80FF92FF11D677021E030E001C034
:100B0000220F6A95EAF78281822B82830895FC0185
:100B100032962FEF30E04191641751F02F3F19F4D6
:100B2000411101C0232F3F5F3630A9F72F3F09F451
:100B30000895820F911D27FD9A95FC016283089507
:100B40008091FF0181111092FF0108958091FE01B3
:100B50009091FD01892B9091FC01892B80935C0180
:100B60009091FF019923A1F0892B80935C018091E2
:100B70001501882341F18091210287FF24C08EE175
:100B8000EEE5F1E090E0815000F591110E94A005A2
:100B9000E0912302F09124023097E1F08091150159
:100BA000882359F08091210287FF07C080915C0162
:100BB00080935D0185E080935C010280F381E02DEC
:100BC0008CE591E0099486E0DBCF21912223D9F2D4
:100BD0009F5FD9CF0895E92FEE0FE90FEE0F8E0F2B
:100BE000982F977086958695869525E0829FF001CF
:100BF0001124EC53FE4F50E040E080E0219130E0C2
:100C0000092E02C0369527950A94E2F72170332702
:100C1000042E01C0220F0A94EAF7822B4F5F5F4F28
:100C20004530510559F70895E92FEE0FE90FEE0F02
:100C30008E0F982F977041E001C0440F9A95EAF704
:100C400086958695869595E0899FF0011124EC5351
:100C5000FE4F30E020E070E05191DF011197CB01B1
:100C6000022E02C0969587950A94E2F781708195CD
:100C70008527842385278C932F5F3F4F25303105AF
:100C800059F708952091C3019091920156E02913DC
:100C900002C080E0089530E0529FF001539FF00DB4
:100CA0001124ED56FE4F7181761306C070817813C2
:100CB00003C07281741304C02F5F3F4F2770E7CFCA
:100CC00081E008958091C30190919201981301C031
:100CD00008958F5F8770FACF882341F080959091B7
:100CE000FE0189238093FE010C94A60508958823B4
:100CF00039F09091FE01982B9093FE010C94A6057B
:100D0000089520918501309186012817390771F0E7
:100D10009093860180938501E0912302F091240253
:100D2000309721F00084F185E02D099408952091F9
:100D30008301309184012817390771F09093840161
:100D400080938301E0912302F0912402309721F0F7
:100D50000680F781E02D09940895E0912302F09137
:100D60002402309721F00190F081E02D099480E079
:100D700008959091210292FF06C0282F28712830F3
:100D8000F9F4877F846093FF06C0282F28712831EB
:100D9000F1F4877E84612091220220FF06C0382F63
:100DA00038713830D9F4877F816021FF06C0282F41
:100DB00028712831D1F4877E816194FD877E089562
:100DC000282F24712430F9F68B7F8860DCCF282F00
:100DD0002471243101F78B7E8861DDCF382F31718A
:100DE000313019F78E7F8860E0CF282F21712131B3
:100DF00021F78E7E8861E1CFCF93DF93972F70E04C
:100E000026E0929F600D711D1124FB0134E5839F44
:100E1000E00DF11D1124EE0FFF1FEA5BFD4FC591A0
:100E2000D491CE01C238D105B9F1E8F5C133D1056D
:100E300009F499C050F5C932D10509F48DC0CA3200
:100E4000D10509F497C0C11521E5D20708F0BFC04C
:100E5000C11530E5D30708F016C1C83ED10508F02A
:100E60009DC0C03ED10568F5C83AD10508F089C0DB
:100E7000C53AD10508F0FFC0C130D10511F1209766
:100E800009F443C02497E8F440C0C533D10509F400
:100E90005CC0C933D105B9F620912102237089F0D5
:100EA00080EE90E00EC0C33ED10591F168F4C03EE3
:100EB000D105F9F0C23ED10531F62091210222FD83
:100EC00020C0DF91CF910895C63ED10561F1C73EA4
:100ED000D10581F1C43ED10509F0B5CF20912202A0
:100EE00021FFEFCF8091210284FD0FC087EE90E0BB
:100EF000E8CF2091210220FD12C13091220230FF63
:100F0000E0CF83EE90E024FFDCCF90E080E0D9CF0B
:100F10002091210222FD06C13091220230FDC0CF76
:100F200024FFCFCFF2CF2091210223FFCACF24FD8F
:100F3000ECCFDCCF2091210223FDF7C030912202BB
:100F400031FFEECF84EE90E0BCCF2091210225FF4F
:100F5000B8CF89E290E0B5CF2091210225FFB1CF33
:100F600085E390E0AECF2091210226FFAACF8AE24E
:100F700090E0A7CF2091210226FFA3CF81E390E04C
:100F8000A0CFCF3BD10508F6C85AD0E0CC0FDD1F6B
:100F9000C25EDE4F88819981946493CFC11520E2AF
:100FA000D20760F4C11531E0D30708F08ACFCE0133
:100FB0009065C03FD10508F084CFA7CFC11580E46C
:100FC000D80708F4A2CFCE019F70906A7ACFC115DE
:100FD00095E5D90710F5C11524E5D20708F088C0BA
:100FE000C11533E5D30708F06FC0C11582E5D807F6
:100FF00008F465C09E012370332781E090E002C0B1
:10100000880F991F2A95E2F7C695C69520E2C29FE0
:10101000E00111248C2B9D2B50C0C11599E5D907F7
:10102000A0F4C11528E5D20708F067C0C11536E560
:10103000D30708F06ACF8C2F0E94B90690E0982F52
:10104000882788279F7190623CCFC1158AE5D80711
:1010500008F458C0CE0190568115904208F055CF43
:101060008D2F8F710E94B90690E0982F88278827CE
:101070009F718C2BE8CFC55AD0E0C55EDE4F8881CA
:1010800090E090641ECF9E01E4E036952795EA95A6
:10109000E1F723708C2F86958695837030E2839FCD
:1010A000C0011124922BC37021E030E002C0220F56
:1010B000331FCA95E2F7822B932B9C6802CF9C2F9B
:1010C0008827816F906AFDCE9E012370332781E0CF
:1010D00090E002C0880F991F2A95E2F7C695C69541
:1010E00030E2C39FE00111248C2B9D2B9A68E9CE3E
:1010F0009C2F8827846F906AE4CE9C2F8827806F6E
:10110000906ADFCE8C2F8F700E94B90634E0D6959E
:10111000C7953A95E1F7CF709C2F9069D2CE89E3BD
:1011200090E0CFCE82EE90E0CCCE86EE90E0C9CEBD
:10113000BF92CF92DF92EF92FF920F931F93CF93C4
:10114000DF938C01C0901D02D0901E02E0901F0220
:10115000F09020028091000290910102A091020281
:10116000B0910302C82AD92AEA2AFB2ACFE1D0E0AB
:10117000BC2ED701C6010C2E04C0B695A795979535
:1011800087950A94D2F780FD0EC0219788F7B12C7D
:101190008B2DDF91CF911F910F91FF90EF90DF90FA
:1011A000CF90BF900895B8018C2F0E94FC06019744
:1011B00061F3EECFCF93DF93EC010E949808BE015C
:1011C000DF91CF910C94FC060E94DA08292F2F7032
:1011D00092959F7092509E3078F4E92FF0E0E05B9A
:1011E000FB4D0C94FF1F803F19F020F4883E20F443
:1011F00081E00895843FE1F380E00895883EC0F3E4
:10120000813FD1F7F5CF822F8695869586950895F3
:1012100027982F98089526982E98089525982D9808
:10122000089556985E980895279A2F9A0895269AB9
:101230002E9A0895259A2D9A0895CF92DF92EF92D3
:10124000FF92CF936B017C01C701AA27BB27C0E1A6
:101250000097A105B10519F4D701CB01C0E0492FD2
:101260005A2F6B2F7727411551056105710519F02C
:10127000C85FDB01CA01AC01BD01E4E0769567956A
:1012800057954795EA95D1F74115510561057105C7
:1012900019F0CC5FDB01CA01AC01BD0132E07695EB
:1012A0006795579547953A95D1F7411551056105D1
:1012B000710519F0CE5FDB01CA01B695A795979528
:1012C0008795892B8A2B8B2B09F0CF5F0E94110900
:1012D0000E940E090E940B090E940809C150C730E4
:1012E00040F4EC2FF0E0E25AFB4D0C94FF1F0E94FB
:1012F0001A09C701B601CF91FF90EF90DF90CF9010
:1013000008950E941A090E941709F3CF0E941A0932
:101310000E941409EECF0E941A090E941709F8CF03
:10132000209828982198299822982A9823982B98D1
:1013300052985A9853985B983E984698089580988A
:10134000889A8198899A84988C9A85988D9A86989B
:101350008E9A87988F9A0895CF9384E090E00E94A8
:101360003C20C82F81E290E00E943C20982F8C2FD7
:10137000CF910895CF93DF9300D00F92CDB7DEB712
:1013800090917402943019F589837B836A8383E09A
:101390008093E9008FEF9091E800815095FD06C0A1
:1013A00095ED9A95F1F700008111F5CF8091E80055
:1013B00085FF0DC050E040E063E070E0CE01019693
:1013C0000E94E8028091E8008E778093E8000F90F9
:1013D0000F900F90DF91CF910895BC0184E00C94A1
:1013E000BA09BC0183E00C94BA099C0182E08093A5
:1013F000E9009FEF8091E800915085FD06C085EDE2
:101400008A95F1F700009111F5CF8091E80085FFF2
:101410000CC050E040E065E070E0C9010E94E802C5
:101420008091E8008E778093E8000895CF93DF9352
:10143000EC01809115018823B1F18091210287FF91
:1014400032C060E283E08093E9008FEF9091E80082
:10145000815095FD06C095ED9A95F1F70000811138
:10146000F5CF8091E80085FF1BC08091150170E0E9
:1014700050E040E0811104C050E040E068E070E0DE
:10148000CE010E94E8028091E8008E778093E80008
:1014900080E2FE01A2E5B2E001900D928A95E1F7AB
:1014A000DF91CF91089568E081E0CDCFEF92FF9278
:1014B0000F931F93CF93DF930E9411090E940E098F
:1014C0000E940B090E94080988E8E82EF12C8FEF92
:1014D00090E0F701918380830AE810E0F80191839E
:1014E0008083CCE8D0E0998388830E941A09FFEFBB
:1014F00020E782E0F15020408040E1F700C000008A
:101500000E9417099FEFE0E7F2E09150E040F040C1
:10151000E1F700C000000E9414092FEF80E792E07D
:10152000215080409040E1F700C000000E940E0969
:10153000EFEFF0E722E0E150F0402040E1F700C09B
:1015400000000E940B098FEF90E7E2E0815090408D
:10155000E040E1F700C000000E94080980910B0202
:101560008770FFEF8F9FC001112495958795959502
:1015700087959927F70191838083F8019183808370
:10158000998388830E9411090E940E090E940B0909
:10159000DF91CF911F910F91FF90EF900C9408096C
:1015A0006FEE7EEF90E080E00E946E2060E082E0CF
:1015B00090E00E94502060E083E090E00E94502084
:1015C0001092000210920102109202021092030285
:1015D00060E084E090E00E94502060E081E290E0D2
:1015E0000E94502060E085E090E00E94502060E082
:1015F00086E090E00E9450206FEF87E090E00E942C
:10160000502040E050E0BA0188E090E00E94622063
:1016100060E08DE090E00E94502040E050E0BA0190
:1016200088E190E00E94622060E087E190E00E9403
:10163000502040E050E0BA018CE190E00E9462202E
:1016400060E080E290E00E94502040E050E0BA016B
:1016500088E190E00E94622010920B0210920C022E
:1016600010920D0210920E0284E0806180930B02B2
:1016700040910B0250910C0260910D0270910E028C
:101680008FE090E00E94622040E050E0BA0183E1E8
:1016900090E00C946220CF93C82F873070F5809132
:1016A000090190910A01892B89F564E670E080E4D4
:1016B0000E94241F90930A0180930901892BD1F481
:1016C00064E670E082E10E94801F90930A0180939B
:1016D0000901892B79F481E090E001C0880FCA9557
:1016E000EAF764E670E080950E94801F90930A01FB
:1016F00080930901CF910C94D31F8A30B9F040F444
:10170000883071F0893079F0209A2898CF91089527
:101710008C3091F070F08D30B9F73E9A4698F6CF44
:10172000219A2998F3CF229A2A98F0CF239A2B98BE
:10173000EDCF529A5A98EACF539A5B98E7CF80E25E
:1017400090E090930A018093090180917C018111BE
:101750000EC00E941E1F81E080937C012FEF83ED5D
:1017600090E3215080409040E1F700C0000064E623
:1017700070E080E40E94241F90930A018093090185
:10178000892B09F04EC064E670E080E00E94801F63
:1017900090930A0180930901892B09F042C064E605
:1017A00070E080E00E94801F90930A0180930901FD
:1017B000892BB9F564E670E08FE30E94801F909357
:1017C0000A0180930901892B61F50E94D31F64E609
:1017D00070E080E40E94241F90930A018093090125
:1017E000892BF9F464E670E08CE00E94801F9093EE
:1017F0000A0180930901892BA1F464E670E080E07E
:101800000E94801F90930A0180930901892B49F45B
:1018100064E670E08FE30E94801F90930A0180933A
:1018200009010E94D31F809109010895CF93873049
:1018300050F58091090190910A01C0E0892B71F463
:1018400064E670E081E40E94241F90930A01809373
:101850000901892B31F0C0E00E94D31F8C2FCF915A
:10186000089584E690E00E94AF1F97FF05C0909313
:101870000A0180930901EFCFC82FC09510920A0189
:1018800010920901E9CFCFB18FB1869586958C73FF
:10189000C3708C2BC82FC095E1CF1F920F920FB64B
:1018A0000F9211242F933F934F935F936F937F93E6
:1018B0008F939F93AF93BF93EF93FF938091E1003A
:1018C00082FF09C08091E20082FF05C08091E100A3
:1018D0008B7F8093E1008091DA0080FF24C08091AB
:1018E000D80080FF20C08091DA008E7F8093DA00DC
:1018F0008091D90080FF9BC080E189BD82E189BDD4
:1019000009B400FEFDCF81E08093740280914F0204
:10191000811109C00E9498020E9463038091E20035
:1019200084608093E2008091E10080FF17C0809185
:10193000E20080FF13C08091E2008E7F8093E2007E
:101940008091E20080618093E2008091D800806203
:101950008093D80019BC85E0809374028091E100E7
:1019600084FF29C08091E20084FF25C080E189BD09
:1019700082E189BD89B5982F917080FFFBCF80915E
:10198000D8008F7D8093D8008091E1008F7E809376
:10199000E1008091E2008F7E8093E2008091E2007E
:1019A00081608093E20080917502882309F445C02C
:1019B00084E0809374028091E10083FF27C08091CE
:1019C000E20083FF23C08091E100877F8093E100E4
:1019D00082E080937402109275028091E1008E7F04
:1019E0008093E1008091E2008E7F8093E2008091FD
:1019F000E20080618093E20042E060E080E00E94CB
:101A000031038091F00088608093F000FF91EF91A6
:101A1000BF91AF919F918F917F916F915F914F9106
:101A20003F912F910F900FBE0F901F90189519BCEA
:101A30001092740210924F0276CF8091E30087FDDE
:101A400093E090937402B7CF78941F921FB61F92C1
:101A500011248F939F93AF93BF9380910402909131
:101A60000502A0910602B09107020196A11DB11DC9
:101A70008093040290930502A0930602B09307029C
:101A8000BF91AF919F918F911F901FBE1F9018958E
:101A90002FB7F8948091040290910502A09106025C
:101AA000B09107022FBF08950E94480D9C019091AC
:101AB0003B0280913C02982B21F030933902209315
:101AC000380290913D0280913E02982B21F0309394
:101AD000360220933502E0912302F09124023097E0
:101AE00031F00480F581E02D8AE392E009940895B5
:101AF0001092FD011092FC010E94A60585E0EAE328
:101B0000F2E0DF011D928A95E9F7109237021092F8
:101B10003402109208020E94540D90E080E00E946E
:101B2000970690E080E00C9481060E941D09609366
:101B30001D0270931E0280931F02909320020C944A
:101B4000780D0F931F9341E050E060E070E004C017
:101B5000440F551F661F771F8A95D2F7CB01BA0134
:101B6000609570958095909500911D0210911E02D0
:101B700020911F023091200260237123822393233E
:101B80001F910F910C94950D9091FB0180958923E5
:101B90008093FB01282F277071F4282F082E000C4A
:101BA000330B9217130639F08595859585950E941C
:101BB000A10D1092FB0108950F931F9341E050E097
:101BC00060E070E004C0440F551F661F771F8A95C0
:101BD000D2F780911D0290911E02A0911F02B09138
:101BE00020028A019B01082B192B2A2B3B2BC901B0
:101BF000B8011F910F910C94950D609300027093A2
:101C0000010280930202909303020C94780D1092CB
:101C1000FE0180911501EEE5F1E0882359F08091F5
:101C2000210287FF07C08EE1DF011D928A95E9F747
:101C30000C94780D86E0F8CF1F93CF93DF93CDB748
:101C4000DEB7AA970FB6F894DEBF0FBECDBF86E70A
:101C500092E02091F100DC012D93CD01B2E08E37AE
:101C60009B07B9F780917702833009F471C0B8F40B
:101C7000813009F448C0823009F4B2C08091E80094
:101C800083FF83C280917602909177029A3008F0A8
:101C90007CC2E92FF0E0EB59FB4D0C94FF1F8A301A
:101CA00009F48DC08B3009F470C0893039F7809108
:101CB0007602813219F780917A0290917B02009727
:101CC00011F00297D9F68091E800877F8093E800B1
:101CD0008091E80082FF37C09091F3008091F2007C
:101CE000029729F48091F1008B7F813021F480915B
:101CF000F100809351028091E8008B778093E80097
:101D00000E941203BBCF80917602813A09F0B6CFD0
:101D10008091E800877F8093E80080917A0290911B
:101D20007B02892B61F460E282E592E070E00E9420
:101D3000C4038091E8008B778093E8009FCF60E038
:101D400090E080E0F3CF809174028111C1CF96CFF3
:101D500080917602813A09F091CF80917A02909138
:101D60007B02892B09F08ACF8091E800877F8093DE
:101D7000E8008091E80080FFFCCF809115018093FE
:101D8000F1008091E8008E77B9CF809176028132A0
:101D900009F074CF80917A0290917B02892B09F02F
:101DA0006DCF8091E800877F8093E8000E94120346
:101DB00080917802809315010E94070E5FCF809179
:101DC0007602813209F05ACF8091E800877F8093B4
:101DD000E8000E94120380917902809350024ECF56
:101DE00080917602813A09F049CF8091E800877F9F
:101DF0008093E8008091E80080FFFCCF8091500242
:101E0000BECF803899F0823809F0BFC180917A0244
:101E10008F70873008F0B9C18093E9008091EB00A2
:101E200085FB882780F91092E90006C08091720234
:101E300090917302911182609091E800977F909346
:101E4000E8008093F1001092F1008091E8008E7715
:101E500098C1882309F486C1823009F096C1809127
:101E60007802811189C180917A028F702FEF280F3B
:101E7000263008F08AC18093E9002091EB0020FF12
:101E80007BC1933031F48091EB0080628093EB0052
:101E900073C19091EB0090619093EB0021E030E0F2
:101EA00001C0220F8A95EAF72093EA001092EA0017
:101EB0008091EB008860EACF811167C110917802B0
:101EC0001F778091E3008078812B8093E3008091DD
:101ED000E800877F8093E8000E9412038091E80069
:101EE00080FFFCCF8091E30080688093E30082E074
:101EF000111183E08093740248C18058823008F049
:101F000044C120917802309179022C3DE3E03E07F4
:101F1000A1F583E08A838AE289834FB7F894DE01D2
:101F2000139620E03EE051E2E32FF0E0509357009B
:101F3000E49120FF03C0E295EF703F5FEF708E2FBA
:101F400090E0EA30C0F0C7968D939D932F5F2431C7
:101F500059F74FBF8091E800877F8093E8006AE2DD
:101F600070E0CE0101960E94C4038091E8008B7757
:101F70008093E8000AC1C096E7CF80917A029091E1
:101F80007B02432F55274330510509F44AC078F5A9
:101F90004130510509F47AC084E590E0EEE3F4E0C5
:101FA0004230510509F0F1C02091E800277F2093CD
:101FB000E80020917C0230917D028217930708F49B
:101FC0009C0140E02115310509F065C0411163C055
:101FD0008091E80082FDC9CF80917402882329F2A4
:101FE000853019F28091E80083FFF2CFBECF4132F5
:101FF000510509F43CC04232510509F0C6C0833096
:10200000910508F0C2C0FC01EE0FFF1FE15BFE4F1F
:102010000190F081E02D845B9E4FDC018C9190E07B
:102020001AC0332721303105D1F02115310561F077
:102030002230310509F0A9C0E4EAF4E0E4918E2FE2
:1020400090E0E4EAF4E007C0EEEEF4E0E4918E2FD5
:1020500090E0EEEEF4E0009709F497C0A5CFECEB2A
:10206000F4E0E4918E2F90E0ECEBF4E0F4CF8330D9
:10207000910508F08AC0880F991FFC01EB5AFE4FAA
:102080000190F081E02D89E090E08ECF82E190E038
:10209000E2E9F4E089CF80917402882309F465CFE6
:1020A000853009F462CF8091E80083FD5ECF809196
:1020B000E80082FD8DCF8091E80080FF83CF909172
:1020C000F3008091F2002115310519F08830910557
:1020D00050F041E0089709F040E08091E8008E77E9
:1020E0008093E8006FCF44914093F10031962150E6
:1020F00031090196E8CF803809F047C08091E800A7
:10210000877F8093E800809175028093F1009DCED7
:1021100081113BC0109178021230B8F58091E8002F
:10212000877F8093E800109375020E9412031123A9
:1021300011F084E005C08091E30087FDFACF81E0D3
:102140008093740242E061EC81E00E94310342E03E
:1021500061EC82E00E94310342E261EC83E00E9484
:10216000310313C080917802813079F481E093309B
:1021700009F080E0809373021092E9008091E800FA
:10218000877F8093E8000E9412038091E80083FF1C
:102190000AC08091E800877F8093E8008091EB007F
:1021A00080628093EB00AA960FB6F894DEBF0FBE54
:1021B000CDBFDF91CF911F9108951F920F920FB65F
:1021C0000F9211242F933F934F935F936F937F93BD
:1021D0008F939F93AF93BF93CF93DF93EF93FF932F
:1021E000D091E900DF708091EC00C82FC17080FDB4
:1021F000C0E81092E9008091F000877F8093F000A2
:1022000078940E941C0E1092E9008091F000886082
:102210008093F000CD2BCF70C093E900FF91EF9138
:10222000DF91CF91BF91AF919F918F917F916F91EE
:102230005F914F913F912F910F900FBE0F901F9084
:1022400018958823B1F19CEF980F913A38F4682FD4
:102250008CE591E00E9441050C94A60590E2980F50
:10226000983088F4877021E030E0A90102C0440F63
:10227000551F8A95E2F7CA0180959091FE01892346
:102280008093FE01E9CF9BE5980F933020F490E016
:1022900080E00C94970698E5980F973120F490E031
:1022A00080E00C948106803F20F00E9425040C946D
:1022B000540D0895CF93C82F882309F46EC08CEF76
:1022C0008C0F813AB8F580911501882311F1809126
:1022D000210287FF1EC0EC2FE695E695E695F0E01B
:1022E000E45AFE4F828190E04C2F477021E030E0AD
:1022F00002C0220F331F4A95E2F782239323892BD2
:1023000089F06C2F8CE591E00E9441050E94A605A2
:1023100009C0EEE5F1E08191C81799F381E0E43658
:10232000F807C9F76C2F8CE591E00E946B05CF91FF
:102330000C94A60580E28C0F883068F4C77021E009
:1023400030E001C0220FCA95EAF78091FE01822B8E
:102350008093FE01ECCFEBE5EC0FE33040F4F0E0CE
:10236000E55EFE4F808190E0CF910C949706E8E502
:10237000EC0FE73150F4F0E0EE0FFF1FE25EFE4F8E
:1023800080819181CF910C948106C03F30F08C2FD9
:102390000E94CA04CF910C94540DCF910895CF930D
:1023A000C82F0E945A11C93349F42FEF87EE93E0EA
:1023B000215080409040E1F700C000008C2FCF9169
:1023C0000C9421110F931F93CF93DF93C62FD42F1B
:1023D000022FFC0182818823A1F0609380020E9479
:1023E000480D90937F0280937E02C77081E001C008
:1023F000880FCA95EAF7DF91CF911F910F910C9446
:10240000770680918002681335C080917E0290919A
:102410007F020E943205843F914060F510E21D0F5B
:10242000CD17B9F080E28C0F883040F4C77081E09E
:1024300001C0880FCA95EAF70E946C06183048F46C
:1024400081E09D2F977001C0880F9A95EAF70E944E
:102450007706802F0E94CF11183098F4D77081E052
:1024600001C0880FDA95EAF7DF91CF911F910F91A4
:102470000C946C06C77081E001C0880FCA95EAF71A
:10248000F3CFDF91CF911F910F9108950F931F9379
:10249000CF93DF938C01EB018091080182FF2FC065
:1024A0008B7F809308018091890120918701309171
:1024B0008801AB01421B530B2091060130910701AB
:1024C0004217530788F40E945A11809108018D7FAA
:1024D00080930801809189010E9421118091FD0162
:1024E0008D7F8093FD0115C09091FD0192609093C6
:1024F000FD010E945A11809108018260E9CF802F6E
:102500000E9421118091890190918A010817190771
:1025100029F30E94A605D0938801C0938701DF911B
:10252000CF911F910F9108954F925F926F927F927A
:102530008F929F92AF92BF92CF92DF92EF92FF92D3
:102540000F931F93CF93DF93CDB7DEB728970FB6C6
:10255000F894DEBF0FBECDBF7C01FC018381948166
:10256000892B39F01081D180812F8D218F3F09F087
:10257000C7C528960FB6F894DEBF0FBECDBFDF915A
:10258000CF911F910F91FF90EF90DF90CF90BF9070
:10259000AF909F908F907F906F905F904F90089535
:1025A0000E949808082F682F89819A810E9414063A
:1025B000E12FF0E026E0D29EE00DF11D112434E57C
:1025C000039FE00DF11D1124EE0FFF1FEA5BFD4F8D
:1025D000059114910A328DE5180709F077C0F701CB
:1025E00082818823C9F180910B0291E0980F977046
:1025F000887F953008F4892B80930B0280910B0221
:102600008770FFEF8F9FC001112495958795959551
:1026100087959927909389008093880090938B00E9
:1026200080938A0090938D0080938C0040910B02E0
:1026300050910C0260910D0270910E028FE090E0BB
:102640000E94622060911D0270911E0280911F0203
:10265000909120020E941D090E94480D6C01F70113
:102660008281811145C00B32110539F008F07BC120
:10267000C8014E970A9708F081C1F701828188232B
:1026800009F48FC18091080180FF67C09091FE011D
:10269000911163C010938A0100938901D09288013F
:1026A000C092870184608093080182E00E94C40D7B
:1026B0008091FB01877009F45CCFF7018281882348
:1026C00009F457CF82E00E94C40D53CF0D322DE59F
:1026D000120739F00E323DE5130709F0BDCF26E2AF
:1026E00001C025E241EE61EEC7010E94E211E0CF98
:1026F0008091080182FF05C0B60190E080E00E9451
:1027000046128091FD018D7F8093FD010931FCE52A
:102710001F0709F482C080F407313CE5130709F470
:1027200072C008318CE5180709F09DCF8091060131
:102730009091070105976CC00B319CE5190709F4CE
:102740005EC008F455C0809108018E7F0C31FCE515
:102750001F0709F088CF80930801F7018281882341
:1027600009F4E2C4109280020230FCE51F0708F46D
:1027700018C206312CE5120738F098012B5F3C4552
:102780002730310508F00DC20E94AC099093220257
:10279000809321020F303CE5130709F4E3C108F0F0
:1027A0005DC108309CE5190709F4C6C108F032C1C3
:1027B0000430FCE51F0709F4B3C108F018C102306A
:1027C0003CE5130709F4A4C103301C4509F4A4C176
:1027D000609121021091220284E090E00E9450203A
:1027E000612F81E290E00E9450200E94070E60CF8E
:1027F00090910801892F8E7F90FF8160ACCF8091EE
:1028000008018160A8CF809106019091070105968B
:102810009093070180930601A0CF809107018F93C9
:10282000809106018F9386E191E09F938F931F9291
:1028300088E08F939F928F920E94AF210FB6F894F9
:10284000DEBF0FBECDBF64015AE0452EF6012081E8
:10285000222309F482CF213009F046C09181828180
:10286000913049F4F2E0CF0ED11C0E94CF112FEF2E
:10287000C21AD20AEBCF923031F422E0C20ED11C40
:102880000E945A11F4CF933031F432E0C30ED11CC0
:102890000E942111ECCF943021F08FEFC81AD80A92
:1028A000E6CF92E0C90ED11C30E020E0A6014F5FD8
:1028B0005F4F8053990B8A30910550F021503109B8
:1028C000B0F28FE99FE00197F1F700C00000F6CF6A
:1028D000429EB001439E700D11249C01260F371FAC
:1028E000F60181816A01E2CFE22FF0E0EA53FE4F68
:1028F0005490822F86958695869590E0FC01EA5447
:10290000FE4F64902770712C022E02C0759467945C
:102910000A94E2F7E1E06E227724FC01EA55FE4FCB
:10292000A490B12C02C0B594A7942A95E2F7F1E0E7
:10293000AF22BB246114710419F081EE0E945A1178
:10294000A114B10419F086EE0E945A11852D0E943F
:10295000CF11AB2819F086EE0E942111672809F4E7
:1029600086CF81EE95CF0D32110540F00933110568
:1029700008F483CE0436110509F47FCE043FFCE54C
:102980001F0731F198F4093D3CE51307E9F00A3DD2
:102990008CE5180749F1083D9CE5190709F49FCE1D
:1029A000DCCEB601C8010E94461282CE063FECE59D
:1029B0001E07B1F088F0073F2CE5120709F0CDCED5
:1029C00027E245EE66EE90CE27E245EE65EE8CCE30
:1029D00026E241EE60EE88CE27E245EE64EE84CE3C
:1029E00026E241EE62EE80CE28E241E0EFCF809118
:1029F0002102806106309CE5190709F447C08091E7
:102A00002102886007301C4508F440C080912102F3
:102A100080623CC00B30FCE51F0709F49BC068F4E2
:102A200009303CE5130709F48BC00A301C4509F056
:102A3000CFCE809121028C6029C0809121028B7FB2
:102A40000D309CE5190711F1809121028D7F0E3028
:102A50001C45E0F080912102877F18C00B3FFCE508
:102A60001F0709F461C060F502313CE5130709F462
:102A700081C078F400319CE5190709F477C0809192
:102A800021028F7B01311C4509F0A2CE80932102E7
:102A90009FCE0431FCE51F0709F47AC008F470C02A
:102AA00005311C4509F094CE8091210282FB9927C3
:102AB00090F921E0922790FB82F990FB83F9E6CF11
:102AC0000E3F8CE5180709F449C070F40C3FECE5A3
:102AD0001E0771F1809122028E7F0D3F1C4509F087
:102AE00077CE8093220274CE01152DE5120709F4EA
:102AF0004BC060F101301D4509F06ACE8091220281
:102B0000982F909591708E7F892B90FB81F9E9CF5A
:102B1000809121028160BACF809121028260B6CF7C
:102B2000809121028460B2CF809122028160D9CF4E
:102B3000809122028260D5CF809121028064A6CF4D
:102B40000E94070E809121028068A0CF809122020E
:102B50008360C7CF809121028E7F98CF809122021F
:102B60008D7FBFCF809121028F7E90CF80912102F7
:102B70008F7D8CCF0E94070E809121028F7786CFA8
:102B800080912102837F82CF809122028C7FA9CF06
:102B90000E94070E90912102892F97FB87F9805898
:102BA00075CF06319CE5190709F0CBC28091FE0173
:102BB0008A7A91E009F490E090938B0169E28111A7
:102BC00065E38CE591E00E946B050E94A60570CD3F
:102BD0000E94070EEFEFF4E32CE0E150F0402040BC
:102BE000E1F700C00000F89481E08093E00080E20B
:102BF0008093D8001092C9008FE19EE40197F1F70D
:102C000000C000001DBA109268001CBC10BE1FBAA4
:102C100010927A0010926E0010926F001092710064
:102C2000109272001092C9001092BC0014B817B82C
:102C30001AB81DB810BA1092BC0015B818B81BB855
:102C40001EB811BA0C94003F33CD0E94D00A30CD8B
:102C5000C8010E94EB05D82E8BC2212F2F70A22E07
:102C6000107F19F0A29420EFA222DD20C9F0AA2043
:102C700069F080E2800F883010F061100BC0809105
:102C8000FE01A82AA092FE010E94A605802F0E94A4
:102C90005A1118C08091FD01A82AA092FD01F4CF1D
:102CA000802F0E942111AA2069F0A094005E0830B4
:102CB00010F0611045C08091FE01A822A092FE0193
:102CC0000E94A6052B2D2850330B2430310510F41B
:102CD0000E94AD06CC20A9F08091FB0180FD11C0BF
:102CE000F70112828595859585950E94DC0DC701B7
:102CF0000E9494128091FB018595859585950E948F
:102D0000A10D85E0F701D40101900D928A95E1F7BC
:102D100089819A810E94EB059A81E981F0E026E0A1
:102D2000929FE00DF11D112434E5839FE00DF11D0C
:102D30001124EE0FFF1FEA5BFD4F8591949119CC92
:102D40008091FD01A822A092FD01BACF312F3F70E2
:102D5000732E107F103219F0729490EF7922662052
:102D600041F081E0681631F1DD2079F1AA2041F1CE
:102D70008DCFDD2091F09091FF01892F8729A1103F
:102D800003C00E9477069ECFE1E0AE12FACF9817FB
:102D900009F498CF8093FF0195CFA11006C00E943F
:102DA000A005872D0E946C068DCFF1E0AF1609F4C7
:102DB00089CFF5CFDD2031F021E02A1508F482CF4C
:102DC000872DDFCFA1107ECFECCFAA2051F339E3BE
:102DD00063128FC18FEF97EEE3E081509040E040A7
:102DE000E1F700C0000085C1812F8695869583702C
:102DF00061F0813009F066CFC8019370D11002C034
:102E000090E080E00E9481065DCFC8019370D110F0
:102E100002C090E080E00E94970654CF802FDD2012
:102E200029F00E94CA040E94540D4CCF0E94250430
:102E3000FACF812F837009F066C0D11043CF802F65
:102E4000829586958770880F880F602F6F70462E49
:102E5000512C712C612C082E04C0440C551C661C8E
:102E6000771C0A94D2F740E050E0BA0104FF0FC08B
:102E70004FE050E060E070E004C0440F551F661F53
:102E8000771F8A95D2F74095509560957095812F60
:102E9000869586958370823019F1D8F400910002EE
:102EA000109101022091020230910302813069F0F9
:102EB0004429552966297729CB01BA01602371235A
:102EC000822393230E94FD0DFDCE402A512A622ABF
:102ED000732ACB01BA016429752986299729F2CF73
:102EE0004429552966297729009100021091010291
:102EF0002091020230910302CB01BA0160277127B1
:102F000082279327DFCF8695DD2011F0812F8170F6
:102F1000882309F4D7CE802F829586958770880FF5
:102F2000880F602F6F70462E512C712C612C082E4B
:102F300004C0440C551C661C771C0A94D2F740E070
:102F400050E0BA0104FF0FC04FE050E060E070E0D5
:102F500004C0440F551F661F771F8A95D2F740950E
:102F6000509560957095812F8695869583708230F7
:102F700019F1D8F400911D0210911E0220911F0238
:102F800030912002813069F044295529662977293A
:102F9000CB01BA0160237123822393230E94950DF4
:102FA00091CE402A512A622A732ACB01BA016429A0
:102FB000752986299729F2CF442955296629772929
:102FC00000911D0210911E0220911F0230912002DB
:102FD000CB01BA016027712782279327DFCF1F70AB
:102FE000DD2029F0812F0E94DC0D802FCACE802F9A
:102FF0000E946C06812F0E94A10D64CE802FF2EFFB
:103000006F1609F44EC0F61578F020EF621619F12C
:1030100031EF631609F43DC0DD2009F465C0A1104D
:1030200035CE812F8F713AC093EF691609F43EC0F7
:10303000E4EF6E12F1CFDD2009F44BC01F71812F38
:103040000E94DC0D28E0129FC00111248360809350
:10305000FB01812F23C0DD20B9F0A11033CE1F71F9
:1030600061E070E080E090E004C0660F771F881F89
:10307000991F1A95D2F700911D0210911E022091FE
:103080001F0230912002A6CFF1E0FA1508F41ACE03
:10309000E6CF812F8F71DD2009F4ADCF0E94DC0DCA
:1030A00011CE812F8F71DD20C9F3A5CF60E070E0D4
:1030B000CB01DD2009F472CF1F7161E070E080E088
:1030C00090E004C0660F771F881F991F1A95D2F7EA
:1030D00065CF81E00E94C40D31E03A1508F0F2CDD1
:1030E00082E00E94C40DEECDAA2039F0893309F4A4
:1030F00071CE802F0E942111E5CD812F8F717BCF62
:1031000085E09E012F5F3F4F4901D90101900D924B
:103110008A95E1F7F701228189819A81211140CABC
:103120000E94EB05082F44CA06311C4599F4809192
:103130008B0169E2811165E38CE591E00E94410514
:1031400044CD01152CE5120709F442CD0F3D1C4575
:1031500009F47BCDF70100811181882309F478CD32
:10316000C8010E949808D82E682FC8010E94140632
:10317000B8018D2D0E94FC068C01682EF701A580F8
:10318000A2944FE0A422D280D1101092FD01809130
:10319000FB01877099F0DD2089F0812F807F8034DA
:1031A00021F080E2800F883048F082E00E94C40D58
:1031B0008091FB018770CC24C3948111C12CB12E66
:1031C000B2943FE0B322FBE0FB1508F47BCDEB2D7E
:1031D000F0E0E159FB4D0C94FF1F1F93CF93DF9359
:1031E00080919101807FA9F480918E01882389F0DC
:1031F0008091C301D091920160918C0170918D01F9
:10320000A0918F01B0919001C62FC72316E0D8136B
:1032100004C0DF91CF911F91089590E0109711F0B5
:10322000CF3F19F401968770F2CF189F9001199F34
:10323000300D1124F901ED56FE4F41814713F2CFB5
:1032400040814613EFCF42814111ECCF438154813D
:103250004A1B5B0B443F514028F7809191018F70CE
:10326000806180939101F901E856FE4F80818F7053
:10327000806180838CE891E00E949412DF91CF916D
:103280001F910C9462068F929F92AF92BF92CF9241
:10329000DF92EF92FF920F931F93CF93DF93CDB7FF
:1032A000DEB761970FB6F894DEBF0FBECDBF8C01BD
:1032B00085E0F801DE011D9601900D928A95E1F7F7
:1032C000D801EC901196DC9011971296CC90129741
:1032D0008CE8882E81E0982E40918F0150919001CA
:1032E0004115510509F444C190918C0120918D0143
:1032F000892F82238F3F09F43BC11396AD90BC9078
:103300001497F0908E01F501E41BF50BAF01FF203F
:1033100009F4FFC080919101382F307F443F514024
:1033200008F0C8C0311185C0FC2C2D1124C09E119D
:1033300022C0C11020C08F70806180939101C401B0
:103340000E94941280919101D80115968C938F2D33
:1033500061960FB6F894DEBF0FBECDBFDF91CF915F
:103360001F910F91FF90EF90DF90CF90BF90AF90A3
:103370009F908F900895A114B10429F08E2D8D2176
:103380008F3F09F016C180E080FF14C04C2D6D2DD9
:103390008E2D0E944206882369F08CE891E00E94FD
:1033A000941286E0ECE8F1E0DF011D928A95E9F7DE
:1033B000F12CCDCFAB2829F08E2D8D218F3F09F038
:1033C000F5C080E0B82FB170AB2E80FF29C04C2D26
:1033D0006D2D8E2D0E944206B82E811121C0ED86E2
:1033E000DE868D859E850E94DA08292F22952F7012
:1033F000223050F0243078F49F7051F0F80195811C
:10340000907F31F4FB2CA3CF9F7011F08823D1F370
:10341000805E8830B8F3C8010E949412BA2CF2CFB3
:10342000CC2009F494CF8091910181608093910127
:10343000BFCF2D1112C09E1110C0C1100EC0159625
:103440008C93C8010E94941286E0F801ACE8B1E0C8
:1034500001900D928A95E1F77ACFED86DE868D8513
:103460009E850E94E408882309F1CC20F9F0809120
:103470009101803270F020918C0130918D0138875C
:103480002F831986BB86AA868C87CE0107960E9459
:10349000941286E0F801ACE8B1E001900D928A95B3
:1034A000E1F70E94ED18FF24F39451CFC8010E9468
:1034B0009412F9CF332309F470CF2D110FC09E1150
:1034C0000DC0C1100BC0F8018583C8010E94941281
:1034D00086E0D4011D928A95E9F739CFED86DE8624
:1034E0008D859E850E94E408882301F3CC20F1F2AB
:1034F00080919101803268F220918C0130918D0190
:103500003A8329831B82BD82AC828E83CE010196D1
:10351000BECFE43FF140E0F6FC2CCC2039F22D1177
:1035200016C09E1114C08091910180FD8DCF982FFF
:10353000907F09F489CFF8018583903F09F481CF0A
:10354000982F907F905F8F70892B85837ACFED863F
:10355000DE868D859E850E94E40881119ACF809138
:103560009101816080939101C8010E949412EFCE75
:10357000CC2009F49BCFED86DE868D859E850E944A
:10358000E408F82E882309F491CF86E0F801ACE82E
:10359000B1E001900D928A95E1F780918C019091B4
:1035A0008D010E94DA080E94ED18D1CE81E08C25B1
:1035B00009CF81E08C25E8CE1F93CF93DF93CDB761
:1035C000DEB767970FB6F894DEBF0FBECDBF4B8B4B
:1035D0005C8B6D8B7E8B8F8B1A8A198A85E0FE013E
:1035E0007396DE011D9601900D928A95E1F786E0B3
:1035F000FE013D96DE01179601900D928A95E1F746
:10360000CE0107960E944319811112C086E0FE0187
:103610003796DE01119601900D928A95E1F78A8521
:103620009B85892B29F08F81988589238F3FB1F560
:1036300016E08091C3019091920189131DC0679695
:103640000FB6F894DEBF0FBECDBFDF91CF911F91B3
:10365000089596E0929FD001939FB00D1124AD562E
:10366000BE4FFE01319601900D929A95E1F780933D
:1036700092010E946206DCCF819FC00111248D5609
:103680009E4F0E9443198823D1F28091C30190E09C
:103690000196877099278093C301CBCF2091920127
:1036A00030E0C9010196877099274091C3014817FE
:1036B000190679F60E94070E109292011092C3012A
:1036C00086E0ECE8F1E0DF011D928A95E9F7B0CFE2
:1036D0008F929F92BF92CF92DF92EF92FF920F93C1
:1036E0001F93CF93DF938091090190910A01892B59
:1036F00091F080917D018F5F80937D0181110BC0DE
:103700000E949F0B90E090930A0180930901892BFE
:1037100011F40E94560A2FE0822E22E0922E7401AC
:1037200010E000E097E0C92EC00E802F0E944B0BE6
:103730008C2D0E944B0B802F0E94160CE701999153
:103740007E01D12C891729F0FE0131978083DD2479
:10375000D3948C2D0E94160CF7019681891709F4D9
:103760007AC0868381E08D29182B0E9490090F5F13
:103770000730C1F60E94480D60917F017091800171
:103780009093800180937F0120917E0130E0261B81
:10379000370B820F931F6BEF70E00E94D71FE82E4C
:1037A000392F082F80937E01F0908201FF2009F4C9
:1037B0005EC010928201E0910902F0910A02AF010D
:1037C000425F5F4F20E08BEFB82E6BEF70E0A1916E
:1037D000AB3F99F0CA2ED12C8E2D932F0A17E8F10A
:1037E0008C199D09092E000CAA0BBB0B4E97A10545
:1037F000B105C8F1DF011197BC924E175F0739F789
:1038000020938201111102C0211133C01092810155
:10381000A0910902B0910A0290918201E6E2F2E0E1
:1038200080E03191E40129914E01321751F03C9131
:103830003B3FD9F40C93AF0141505109EA01288371
:1038400091E01196D2E0E433FD0759F7909382019D
:103850008093810112C080E086CFDB01AC19BD09E5
:103860008A0F9B1FBFCF2F2DC8CF81E0EACF111148
:10387000CDCF809181018111C9CF8091080182FF54
:1038800017C00E94480D2091870130918801AC013A
:10389000421B530B20910601309107014217530739
:1038A00038F0BC018091890190918A010E944612F2
:1038B000812FDF91CF911F910F91FF90EF90DF90BB
:1038C000CF90BF909F908F900895CDB7DEB72F9780
:1038D0000FB6F894DEBF0FBECDBF84B7877F84BF1D
:1038E0000FB6F894A895809160008861809360007D
:1038F000109260000FBE80E890E00FB6F8948093BD
:103900006100909361000FBE85B7806885BF85B761
:10391000806885BF0E9498020E9463038091E20044
:1039200084608093E2007894809174028823A1F0EF
:103930001091E9001F709091EC00892F817090FD2B
:1039400080E8182B1092E9008091E80083FD0E9426
:103950001C0E1F701093E90082E084BD93E095BDBA
:103960009AEF97BD80936E000E949F0B90E090931A
:103970000A01809309010E9490090E949F09EFE0CB
:10398000F2E08DE192E0A6E2B2E011921D928E1774
:103990009F07D9F78EE090E00E948420809309026F
:1039A00090930A02FC010E962BEF21938E179F072E
:1039B000E1F790E080E00E944A208F3E9E4F11F098
:1039C0000E94D00A89EA8093800089E08093810078
:1039D00024982C983F988AB18F7C8AB96E98479A20
:1039E0008BB180638BB9769A8FE090E00E9444207F
:1039F00060930B0270930C0280930D0290930E0261
:103A000067704FEF649FB0011124759567957595A8
:103A100067957727709389006093880070938B0077
:103A200060938A0070938D0060938C000E94560A08
:103A300090E080E00E944A208F3E9E4F11F00E944D
:103A4000D00A82E090E00E943C20809340020E94D5
:103A5000AC09909322028093210283E090E00E94BF
:103A60003C20682F70E090E080E00E94FD0D6091A6
:103A70001D0270911E0280911F02909120020E94EF
:103A80001D098BE091E0909324028093230298E13A
:103A9000E92EF12C24E3C22E22E0D22E86E292E01F
:103AA0003EE0B32EB80E80E4A82E8091740200E1AF
:103AB00012E1853009F446C10E94681BE1E4F2E09E
:103AC000A6E2B2E010E000E0302F8D91219128179E
:103AD00009F447C190E0992493942827422F492163
:103AE00009F43AC19E833F83892191E009F490E073
:103AF00098870E94480D8160782F9A8789874E8128
:103B00005F8168858A850E94DC1AF801EF5BFD4FB2
:103B100080819826908285E0EAE3F2E0DE0111964A
:103B200001900D928A95E1F790903B0280903C02C3
:103B300010913D0200913E0210923B0210923C0215
:103B400010923D0210923E02892D882909F448C046
:103B500080913802909139020E9432059C01909127
:103B60003702992309F43FC124303105C8F19F3F42
:103B700019F09F5F90933702992059F00E94AA0490
:103B80009FEF19140CF491E0899F802D11248093EC
:103B90003B02882059F00E94AA049FEF18140CF4ED
:103BA00091E0899F802D112480933C0230913B024B
:103BB0003323B1F020913C02222391F045EB3403F2
:103BC000C0011124992309F4E3C090933B0245EB13
:103BD000240390011124332309F4DEC030933C0206
:103BE000812F802B09F448C08091350290913602D4
:103BF0000E9432059C0190913402992309F4EEC091
:103C000024303105C8F19F3F19F09F5F9093340233
:103C1000112359F00E94A8049FEF11160CF491E0B3
:103C2000899F802D112480933D02002359F00E942A
:103C3000A8049FEF10160CF491E0899F802D1124A9
:103C400080933E0230913D023323B1F020913E0239
:103C5000222391F045EB3403C0011124992309F488
:103C60009FC090933D0245EB240390011124332320
:103C700009F49AC030933E0280913B0290913C023D
:103C8000892B90913D02892B90913E02892B11F056
:103C90000E94540D85E0FE013196AAE3B2E0019046
:103CA0000D928A95E1F70E94AD0690913F02891727
:103CB00009F4FBCE0E94AD0680933F02F4CE8091C2
:103CC0007402843009F1109225020FB6F894A89579
:103CD000E09260000FBEA092600083B7817F846095
:103CE00083BF83B7816083BF7894889583B78E7FC5
:103CF00083BF0FB6F894A895809160008861809387
:103D00006000109260000FBE809173028823D1F092
:103D10000E949F0B90E090930A01809309010E94FA
:103D200090090E949F09E6E2F2E01192CE16DF06AA
:103D3000E1F70E94681BE6E2F2E08191811138C050
:103D4000BE12FBCF80917402853009F4B8CF0E9477
:103D5000070E0E94AD06B0CE9F5F990C963009F019
:103D6000BDCE0F5F1F4F0E30110509F0ADCE8FEFA6
:103D70008B878C871D860E94480D8160782F9F87D6
:103D80008E874B855C856D858F850E94DC1AC3CE3E
:103D900081E080933B021BCF81E080933C0220CFE7
:103DA00081E080933D025FCF81E080933E0264CF4B
:103DB00009BD19BD09B400FEFDCF8091D8008F7DEB
:103DC0008093D8008091E00082608093E000809131
:103DD000E00081FDFCCF0E94070EB4CF21393140B5
:103DE00008F013CF49CF232B09F0C3CEF9CE1F9291
:103DF0001FB61F9211248F939F93AF93BF9380910F
:103E00002502811113C08091040290910502A091B6
:103E10000602B09107024196A11DB11D80930402D4
:103E200090930502A0930602B0930702BF91AF9151
:103E30009F918F911F901FBE1F9018951092B900EF
:103E40008CE08093B8000895EF92FF920F931F9338
:103E5000CF93DF93182FEB011092BC0084EA80937C
:103E6000BC000E94480D7C018091BC0087FF27C0E8
:103E70008091B900887F883029F08091B900887FCF
:103E80008031D9F51093BB0084E88093BC000E9478
:103E9000480D8C018091BC0087FF24C02091B9009F
:103EA000287F90E080E02831B1F081E090E020347C
:103EB00011F490E080E09195819591090CC0CF3F7D
:103EC000DC0791F20E94480D8E199F098C179D07FF
:103ED00058F28EEF9FEFDF91CF911F910F91FF90DE
:103EE000EF900895CF3FDC07A9F20E94480D801B98
:103EF000910B8C179D0770F2ECCF8FEF9FEFEBCFFC
:103F00000F931F93CF93DF93EB018093BB0084E863
:103F10008093BC000E94480D8C018091BC0087FFFB
:103F200011C02091B900287F81E090E0283211F47F
:103F300090E080E0919581959109DF91CF911F915B
:103F40000F910895CF3FDC0741F30E94480D801B7D
:103F5000910B8C179D0708F38EEF9FEFEECF0F9319
:103F60001F93CF93DF93EC0184E88093BC000E9401
:103F7000480D8C018091BC0087FF08C08091BB0078
:103F800090E0DF91CF911F910F910895CF3FDC0713
:103F900089F30E94480D801B910B8C179D0750F3ED
:103FA0008EEF9FEFEECF84E98093BC000895AA1BAB
:103FB000BB1B51E107C0AA1FBB1FA617B70710F014
:103FC000A61BB70B881F991F5A95A9F78095909546
:103FD000BC01CD01089597FB072E16F4009407D07D
:103FE00077FD09D00E94D71F07FC05D03EF49095BD
:103FF00081959F4F0895709561957F4F0895EE0FBD
:10400000FF1F0590F491E02D09942F923F924F925B
:104010005F926F927F928F929F92AF92BF92CF9258
:10402000DF92EF92FF920F931F93CF93DF93CDB761
:10403000DEB7CA1BDB0B0FB6F894DEBF0FBECDBFD9
:1040400009942A88398848885F846E847D848C84AA
:104050009B84AA84B984C884DF80EE80FD800C81B3
:104060001B81AA81B981CE0FD11D0FB6F894DEBF96
:104070000FBECDBFED010895F999FECF92BD81BD70
:10408000F89A992780B50895A6E1B0E044E050E0A1
:104090000C947620A8E1B0E042E050E00C94762049
:1040A000262FF999FECF92BD81BDF89A019700B4F1
:1040B000021639F01FBA20BD0FB6F894FA9AF99A91
:1040C0000FBE08950396272F0E9451200E94502072
:1040D000252F0E945120242F0C9451200196272F28
:1040E0000E9451200C945020DC01CB01FC01F99975
:1040F000FECF06C0F2BDE1BDF89A319600B40D9234
:1041000041505040B8F708950F931F93CF93DF931A
:104110008230910510F482E090E0E0918302F0910A
:10412000840230E020E0B0E0A0E0309799F421155F
:10413000310509F447C0281B390B24303105C0F57F
:104140008A819B816115710571F1FB0193838283E3
:10415000FE0111C040815181028113814817590726
:10416000F8F04817590799F4109761F012960C93DC
:10417000129713961C933296CF01DF91CF911F9126
:104180000F9108950093830210938402F4CF2115B8
:10419000310519F04217530718F49A01BD01EF01D8
:1041A000DF01F801C2CF9093840280938302D0CFC5
:1041B000FE01E20FF31F819391932250310939835D
:1041C0002883DACF2091810230918202232B41F49F
:1041D00020910201309103013093820220938102E9
:1041E00020910001309101012115310541F42DB7D5
:1041F0003EB74091040150910501241B350B4091BD
:104200008102509182024217530708F0B5CF241B58
:10421000350B2817390708F4AFCFBC016E5F7F4F0D
:104220002617370708F4A8CF640F751F7093820212
:1042300060938102FA01819391939ECFCF93DF9394
:104240000097E9F0FC01329713821282C091830239
:10425000D0918402DE0130E020E02097A1F420819B
:104260003181820F931F20918102309182022817A1
:10427000390709F067C0F0938202E0938102DF9171
:10428000CF910895DA01AE17BF0708F040C012962B
:104290004D915C9113979D014115510599F7D901F5
:1042A0001396FC93EE9312974D915D91A40FB51F59
:1042B000EA17FB0779F4808191810296840F951F9C
:1042C000D90111969C938E938281938113969C932E
:1042D0008E931297B0E0A0E08A819B810097B9F598
:1042E000FE0181919191E80FF91F809181029091D7
:1042F00082028E179F0719F6109761F510928402BB
:1043000010928302D0938202C0938102B8CFB3830C
:10431000A28340815181840F951FA817B90771F4BA
:104320004E5F5F4F8D919C911197480F591F51839C
:10433000408312968D919C91938382832115310540
:1043400009F0ADCFF0938402E093830298CFDE01B1
:10435000EC01C2CF13961C921E921297D3CFAEE0FF
:10436000B0E0E5EBF1E20C9413200D891E898F89F2
:10437000988D26E02C831A83098397FF02C080E082
:1043800090E801979E838D83AE01455E5F4F698DF6
:104390007A8DCE0101960E94DF214D815E8157FD0D
:1043A0000AC02F813885421753070CF49A01020F77
:1043B000131FF80110822E96E4E00C942F20ABE03E
:1043C000B0E0E5EEF1E20C9405207C013B018A01AE
:1043D000FC0117821682838181FFB9C19AE0292EE0
:1043E000CE0101965C01F7019381F30193FD859164
:1043F00093FF81913F01882309F446C1853239F446
:1044000093FD859193FF81913F01853229F4B70196
:1044100090E00E94C023E7CF912C412C512CFFE16A
:10442000F51538F08B3209F188F4803201F18332CE
:1044300021F157FC3AC020ED280F2A3040F556FEF6
:104440001FC0929C200D1124922E06C08D3291F037
:10445000803379F7689450F8F30193FD859193FFC9
:1044600081913F018111DBCF20C0689451F868949D
:1044700052F8F2CF689453F8EFCF689454F8ECCF29
:10448000429C200D1124422E689455F8E5CF8E32BF
:1044900029F456FCF9C0689456F8DECF8C3619F42E
:1044A000689457F8D9CF8836B9F2982F9F7D9554E4
:1044B0009330C0F08336A1F18337C1F1833509F021
:1044C0005BC0F801C190D1908F01692D70E056FC5E
:1044D00002C06FEF7FEFC6010E94AA234C016894CF
:1044E00057F80AC00C5F1F4F2FE329838824839459
:1044F000912C6501E89457F853FC04C04814190442
:1045000009F018F5342C8114910431F5332009F4A5
:104510006ACFB70180E290E00E94C0233A94F6CFC0
:10452000F801808189830E5F1F4FE0CFF801C190B1
:10453000D1908F01692D70E056FC02C06FEF7FEFC4
:10454000C6010E94B5234C01D5CFB70180E290E0AF
:104550000E94C0234A94D2CFF60157FC859157FEA2
:1045600081916F01B70190E00E94C02331103A940D
:10457000F1E08F1A9108C7CF843619F0893609F017
:1045800074C0F80157FE6AC0619171918191919157
:104590008F01252D2F76D22E97FF09C090958095FB
:1045A000709561957F4F8F4F9F4F6894D7F82AE0A1
:1045B00030E0A5010E94F023C82ECA188C2C5D2C77
:1045C000D6FE0CC0E89450F8C91440F4D4FE05C0DF
:1045D000D2FC03C0FD2DFE7E5F2E892C54FE8FC0C1
:1045E000FE01EC0DF11D8081803309F081C0252D85
:1045F000297E522E852D8870382E53FC8FC050FE98
:1046000089C09C2C841418F44C0C942C981854FEDB
:104610008BC0B70180E390E00E94C02352FE09C026
:1046200088E790E051FE02C088E590E0B7010E9463
:10463000C023C91408F484C0CA94D12C9FEFC91AAE
:10464000D90ACA0CDB1CF60182916F01B70190E018
:104650000E94C023AC14BD04B1F758CF6191719191
:10466000072E000C880B990B93CFD52CE894D4F827
:104670002AE030E0853739F1952D997FD92E8F3694
:1046800001F148F48835A9F0F701868197812B96CE
:10469000E2E10C942120803749F08837A9F7D4FE55
:1046A00002C06894D2F820E130E00DC06894D4F8DC
:1046B000F6CF54FE03C0E92FE660DE2E20E132E0A3
:1046C00002C028E030E0F801D7FE0DC06191719181
:1046D000819191918F01A5010E94F023C82ECA18E3
:1046E000E894D7F86BCF6191719190E080E0F2CFC0
:1046F00052FC02C083947ECF839483947BCF852D1C
:10470000867809F477CFF6CFB70180E290E00E9477
:10471000C02383948414C0F3312C79CF342C3818FF
:10472000841408F474CFF8CF852D867809F481CFEE
:104730008BE251FE80E257FC8DE2B70190E077CF2B
:10474000B70180E390E00E94C0239A9472CF8FEF6C
:104750009FEF9DCFFC010590615070400110D8F78C
:10476000809590958E0F9F1F0895FC0161507040B9
:1047700001900110D8F7809590958E0F9F1F089596
:104780000F931F93CF93DF93182F092FEB018B818A
:1047900081FD09C01FEF0FEF812F902FDF91CF9187
:1047A0001F910F91089582FF14C02E813F818C814B
:1047B0009D81281739073CF4E881F981CF010196E2
:1047C0009983888310838E819F8101969F838E8336
:1047D000E3CFE885F985812F0995892BA1F3DACFFD
:1047E000FA01AA27283051F1203181F1E8946F9322
:1047F0006E7F6E5F7F4F8F4F9F4FAF4FB1E03ED0C8
:10480000B4E03CD0670F781F891F9A1FA11D680F65
:10481000791F8A1F911DA11D6A0F711D811D911D98
:10482000A11D20D009F468943F912AE0269F11240D
:104830003019305D3193DEF6CF010895462F477071
:10484000405D4193B3E00FD0C9F7F6CF462F4F70CC
:10485000405D4A3318F0495D31FD4052419302D02A
:10486000A9F7EACFB4E0A6959795879577956795D0
:10487000BA95C9F700976105710508959B01AC01D0
:104880000A2E06945795479537952795BA95C9F7F7
:10489000620F731F841F951FA01D0895F894FFCF0A
:1048A000F308F308FC08FC08FE08FC08FC08FC08F8
:1048B000F308F3080309FC08FC08030977098309D6
:1048C0008809810986098D098B09010F290FC510F7
:1048D000290FC5105C0F7D0FC5107B1088102D1699
:1048E0002D16A616A616F4160E17621662161917BE
:0648F000EF17FE17FE1792
:1048F600000085022000AF000120002204160AF500
:1049060009F109ED09010A25640A00818283E200A2
:10491600E900EA00B500B600B700CD008301CC007F
:104926008A01920194012102230224022502260211
:1049360027022A02B300B4006F007000404D6D6676
:0C494600011901AC005004690482040057
:00000001FF
